{
  "_format": "hh-sol-artifact-1",
  "contractName": "Arena",
  "sourceName": "contracts/Arena.sol",
  "abi": [
    {
      "inputs": [
        {
          "internalType": "address",
          "name": "_factory",
          "type": "address"
        },
        {
          "internalType": "address",
          "name": "_oracle",
          "type": "address"
        },
        {
          "internalType": "address",
          "name": "_engineSigner",
          "type": "address"
        }
      ],
      "stateMutability": "nonpayable",
      "type": "constructor"
    },
    {
      "anonymous": false,
      "inputs": [
        {
          "indexed": true,
          "internalType": "uint256",
          "name": "tokenId",
          "type": "uint256"
        },
        {
          "indexed": true,
          "internalType": "uint256",
          "name": "roundId",
          "type": "uint256"
        },
        {
          "indexed": false,
          "internalType": "uint8",
          "name": "finalEcoScore",
          "type": "uint8"
        }
      ],
      "name": "AgentDied",
      "type": "event"
    },
    {
      "anonymous": false,
      "inputs": [
        {
          "indexed": true,
          "internalType": "address",
          "name": "previousOwner",
          "type": "address"
        },
        {
          "indexed": true,
          "internalType": "address",
          "name": "newOwner",
          "type": "address"
        }
      ],
      "name": "OwnershipTransferred",
      "type": "event"
    },
    {
      "anonymous": false,
      "inputs": [
        {
          "indexed": true,
          "internalType": "uint256",
          "name": "roundId",
          "type": "uint256"
        },
        {
          "indexed": false,
          "internalType": "enum Arena.Action",
          "name": "action",
          "type": "uint8"
        },
        {
          "indexed": false,
          "internalType": "uint256[]",
          "name": "survivors",
          "type": "uint256[]"
        },
        {
          "indexed": false,
          "internalType": "uint256",
          "name": "childId",
          "type": "uint256"
        }
      ],
      "name": "RoundResolved",
      "type": "event"
    },
    {
      "anonymous": false,
      "inputs": [
        {
          "indexed": true,
          "internalType": "uint256",
          "name": "roundId",
          "type": "uint256"
        },
        {
          "indexed": true,
          "internalType": "uint256",
          "name": "swarmId",
          "type": "uint256"
        },
        {
          "indexed": false,
          "internalType": "enum EcoOracle.Disaster",
          "name": "disaster",
          "type": "uint8"
        },
        {
          "indexed": false,
          "internalType": "bytes32",
          "name": "disasterHash",
          "type": "bytes32"
        }
      ],
      "name": "RoundStarted",
      "type": "event"
    },
    {
      "inputs": [
        {
          "internalType": "enum Arena.Action",
          "name": "",
          "type": "uint8"
        },
        {
          "internalType": "enum EcoOracle.Disaster",
          "name": "",
          "type": "uint8"
        }
      ],
      "name": "ecoMatrix",
      "outputs": [
        {
          "internalType": "int8",
          "name": "",
          "type": "int8"
        }
      ],
      "stateMutability": "view",
      "type": "function"
    },
    {
      "inputs": [],
      "name": "engineSigner",
      "outputs": [
        {
          "internalType": "address",
          "name": "",
          "type": "address"
        }
      ],
      "stateMutability": "view",
      "type": "function"
    },
    {
      "inputs": [],
      "name": "factory",
      "outputs": [
        {
          "internalType": "contract AgentFactory",
          "name": "",
          "type": "address"
        }
      ],
      "stateMutability": "view",
      "type": "function"
    },
    {
      "inputs": [
        {
          "internalType": "uint256",
          "name": "roundId",
          "type": "uint256"
        }
      ],
      "name": "getRound",
      "outputs": [
        {
          "internalType": "uint256",
          "name": "swarmId",
          "type": "uint256"
        },
        {
          "internalType": "enum EcoOracle.Disaster",
          "name": "disaster",
          "type": "uint8"
        },
        {
          "internalType": "bool",
          "name": "resolved",
          "type": "bool"
        },
        {
          "internalType": "uint256[]",
          "name": "survivors",
          "type": "uint256[]"
        },
        {
          "internalType": "uint256",
          "name": "childId",
          "type": "uint256"
        }
      ],
      "stateMutability": "view",
      "type": "function"
    },
    {
      "inputs": [
        {
          "internalType": "address",
          "name": "to",
          "type": "address"
        },
        {
          "internalType": "bytes32",
          "name": "baseDNA",
          "type": "bytes32"
        }
      ],
      "name": "mintSwarm",
      "outputs": [
        {
          "internalType": "uint256",
          "name": "swarmId",
          "type": "uint256"
        }
      ],
      "stateMutability": "nonpayable",
      "type": "function"
    },
    {
      "inputs": [],
      "name": "oracle",
      "outputs": [
        {
          "internalType": "contract EcoOracle",
          "name": "",
          "type": "address"
        }
      ],
      "stateMutability": "view",
      "type": "function"
    },
    {
      "inputs": [],
      "name": "owner",
      "outputs": [
        {
          "internalType": "address",
          "name": "",
          "type": "address"
        }
      ],
      "stateMutability": "view",
      "type": "function"
    },
    {
      "inputs": [],
      "name": "renounceOwnership",
      "outputs": [],
      "stateMutability": "nonpayable",
      "type": "function"
    },
    {
      "inputs": [
        {
          "internalType": "uint256",
          "name": "roundId",
          "type": "uint256"
        },
        {
          "internalType": "enum Arena.Action",
          "name": "action",
          "type": "uint8"
        },
        {
          "internalType": "uint256[2][]",
          "name": "agentScores",
          "type": "uint256[2][]"
        },
        {
          "internalType": "bytes",
          "name": "signature",
          "type": "bytes"
        }
      ],
      "name": "resolveRound",
      "outputs": [],
      "stateMutability": "nonpayable",
      "type": "function"
    },
    {
      "inputs": [],
      "name": "roundCounter",
      "outputs": [
        {
          "internalType": "uint256",
          "name": "",
          "type": "uint256"
        }
      ],
      "stateMutability": "view",
      "type": "function"
    },
    {
      "inputs": [
        {
          "internalType": "uint256",
          "name": "",
          "type": "uint256"
        }
      ],
      "name": "rounds",
      "outputs": [
        {
          "internalType": "uint256",
          "name": "swarmId",
          "type": "uint256"
        },
        {
          "internalType": "enum EcoOracle.Disaster",
          "name": "disaster",
          "type": "uint8"
        },
        {
          "internalType": "uint256",
          "name": "startTime",
          "type": "uint256"
        },
        {
          "internalType": "bool",
          "name": "resolved",
          "type": "bool"
        },
        {
          "internalType": "uint256",
          "name": "childId",
          "type": "uint256"
        }
      ],
      "stateMutability": "view",
      "type": "function"
    },
    {
      "inputs": [
        {
          "internalType": "address",
          "name": "_signer",
          "type": "address"
        }
      ],
      "name": "setEngineSigner",
      "outputs": [],
      "stateMutability": "nonpayable",
      "type": "function"
    },
    {
      "inputs": [
        {
          "internalType": "uint256",
          "name": "swarmId",
          "type": "uint256"
        }
      ],
      "name": "startRound",
      "outputs": [
        {
          "internalType": "uint256",
          "name": "roundId",
          "type": "uint256"
        }
      ],
      "stateMutability": "nonpayable",
      "type": "function"
    },
    {
      "inputs": [
        {
          "internalType": "address",
          "name": "newOwner",
          "type": "address"
        }
      ],
      "name": "transferOwnership",
      "outputs": [],
      "stateMutability": "nonpayable",
      "type": "function"
    },
    {
      "inputs": [
        {
          "internalType": "bytes32",
          "name": "",
          "type": "bytes32"
        }
      ],
      "name": "usedSignatures",
      "outputs": [
        {
          "internalType": "bool",
          "name": "",
          "type": "bool"
        }
      ],
      "stateMutability": "view",
      "type": "function"
    }
  ],
  "bytecode": "0x60806040523480156200001157600080fd5b50604051620017c0380380620017c083398101604081905262000034916200035b565b6200003f33620002ee565b60018055600280546001600160a01b038086166001600160a01b031992831617909255600380548584169083161790556004805492841692909116919091179055620002e57f036f0bf5c2c5c073196f6fb1488fb5c6d4ab60c37eeee12ba5ea6ad19555aa71805460ff19908116601e179091557fc65916d663d52b0a18b63681e34ad6e3e8bb58d57f662b8e7e045ab09fab038580548216600a1790557fed1a59d391841cd382d393969d4cc2b42696716b842306a168373ad09ae69240805460f690831681179091557f7e3f8087768dd46afafd904b64320d27e506312b937487e59f767c7732ae8f6e8054831660199081179091557fdf0a9d4dd4a9647a6eb5bbea3eeade6174c00109bd6b75362f692221a1ab6fe780548416600f9081179091557f41ed2064a2505e8931dbb2320fd86e162a7d3b8432a0a598c14563f81d4a68658054851660149081179091557f21c581a0ab945d3c2e7a94973366a54dbf3f43249e42df04e3baf21d56c250fc80548616821790557f8e79a4c74bb48fbfa1f0012d7da6c0ec4031b3a7bc55783715b0f09b125cf765805460ec9087161790557fee26bdce9a0f44249be1ef1048fcff6a398728ad45453e3c3411382b17b19776805460f19087161790557fdfffa646a8ed92e88f1b7525370d9629bf14d0cc1f3b223f009517bddb844cad805486169094179093557fcff154f2954238602a1f2a14b373cd9c3a4c82784f04c9ce9d83486cd4e47a4a805485169092179091557f09254591376a8fe8fe1e1eac3e2ab88042c924551452cf14e3be69b15d247c448054841690921790915560046000527fb805995a7ec585a251200611a61d179cfd7fb105e1ab17dc415a7336783786f76020527f621fcdeaa9ec64f128963655822bcb1835e513b8e430a97f07ccfc272d2f7f598054909216179055565b505050620003a5565b600080546001600160a01b038381166001600160a01b0319831681178455604051919092169283917f8be0079c531659141344cd1fd0a4f28419497f9722a3daafe3b4186f6b6457e09190a35050565b80516001600160a01b03811681146200035657600080fd5b919050565b6000806000606084860312156200037157600080fd5b6200037c846200033e565b92506200038c602085016200033e565b91506200039c604085016200033e565b90509250925092565b61140b80620003b56000396000f3fe608060405234801561001057600080fd5b50600436106100f55760003560e01c80638f1327c011610097578063f2fde38b11610066578063f2fde38b1461026c578063f978fd611461027f578063fe3aaa67146102b2578063febc14b1146102c557600080fd5b80638f1327c0146101e2578063a8459aa914610206578063c45a015514610246578063f2d62db81461025957600080fd5b8063715018a6116100d3578063715018a6146101485780637dc0d1d0146101505780638c65c81f1461017b5780638da5cb5b146101d157600080fd5b806320dee1ba146100fa5780634a6c356f146101205780635fc3d52d14610135575b600080fd5b61010d610108366004610feb565b6102ce565b6040519081526020015b60405180910390f35b61013361012e366004611017565b61034d565b005b61010d610143366004611034565b610377565b610133610580565b600354610163906001600160a01b031681565b6040516001600160a01b039091168152602001610117565b6101c0610189366004611034565b600560208190526000918252604090912080546001820154600283015460038401549390940154919360ff91821693909291169085565b604051610117959493929190611081565b6000546001600160a01b0316610163565b6101f56101f0366004611034565b610594565b6040516101179594939291906110ef565b61023361021436600461113e565b6007602090815260009283526040808420909152908252812054900b81565b60405160009190910b8152602001610117565b600254610163906001600160a01b031681565b600454610163906001600160a01b031681565b61013361027a366004611017565b61062e565b6102a261028d366004611034565b60086020526000908152604090205460ff1681565b6040519015158152602001610117565b6101336102c03660046111b9565b6106ac565b61010d60065481565b60025460405163106f70dd60e11b81526001600160a01b0384811660048301526024820184905260009216906320dee1ba906044016020604051808303816000875af1158015610322573d6000803e3d6000fd5b505050506040513d601f19601f820116820180604052508101906103469190611276565b9392505050565b610355610bfc565b600480546001600160a01b0319166001600160a01b0392909216919091179055565b60068054600091826103888361128f565b909155506040805142602082015244918101919091526060810182905290915060009060800160408051808303601f19018152908290528051602090910120600354639bbebd7560e01b8352600483018290529092506000916001600160a01b0390911690639bbebd7590602401602060405180830381865afa158015610413573d6000803e3d6000fd5b505050506040513d601f19601f8201168201806040525081019061043791906112b6565b90506040518060c0016040528085815260200182600481111561045c5761045c61104d565b8152426020808301919091526000604080840182905280518281528084018252606085015260809093018190528681526005825291909120825181559082015160018083018054909160ff19909116908360048111156104be576104be61104d565b021790555060408201516002820155606082015160038201805460ff191691151591909117905560808201518051610500916004840191602090910190610f76565b5060a082015181600501559050506000818442604051602001610525939291906112e9565b60405160208183030381529060405280519060200120905084847f55f3bcd9d2b383b3b44aaf45d2eefb061dcb47fcf41f41f6240c9911720ebcce848460405161057092919061130d565b60405180910390a3505050919050565b610588610bfc565b6105926000610c56565b565b600081815260056020818152604080842080546001820154600383015495830154600484018054865181890281018901909752808752899889986060988a98979660ff9081169693169493909184919083018282801561061357602002820191906000526020600020905b8154815260200190600101908083116105ff575b50505050509150955095509550955095505091939590929450565b610636610bfc565b6001600160a01b0381166106a05760405162461bcd60e51b815260206004820152602660248201527f4f776e61626c653a206e6577206f776e657220697320746865207a65726f206160448201526564647265737360d01b60648201526084015b60405180910390fd5b6106a981610c56565b50565b6106b4610bfc565b6106bc610ca6565b6000868152600560205260409020600381015460ff16156107125760405162461bcd60e51b815260206004820152601060248201526f105b1c9958591e481c995cdbdb1d995960821b6044820152606401610697565b6000878760048111156107275761072761104d565b878760405160200161073c9493929190611324565b604051602081830303815290604052805190602001209050600061078d827f19457468657265756d205369676e6564204d6573736167653a0a3332000000006000908152601c91909152603c902090565b905060006107d386868080601f0160208091040260200160405190810160405280939291908181526020018383808284376000920191909152508693925050610cff9050565b6004549091506001600160a01b038083169116146108275760405162461bcd60e51b8152602060048201526011602482015270496e76616c6964207369676e617475726560781b6044820152606401610697565b60008281526008602052604090205460ff16156108795760405162461bcd60e51b815260206004820152601060248201526f5369676e6174757265207265706c617960801b6044820152606401610697565b6000828152600860205260408120805460ff191660011790558767ffffffffffffffff8111156108ab576108ab6112d3565b6040519080825280602002602001820160405280156108d4578160200160208202803683370190505b5090506000805b89811015610a3a5760008b8b838181106108f7576108f7611370565b90506040020160006002811061090f5761090f611370565b6020020135905060008c8c8481811061092a5761092a611370565b90506040020160016002811061094257610942611370565b60200201359050601e8160ff1610156109fa576002546040516318b8137760e21b8152600481018490526001600160a01b03909116906362e04ddc90602401600060405180830381600087803b15801561099b57600080fd5b505af11580156109af573d6000803e3d6000fd5b505050508e827f9b44140f597aa40aed3723c499d47828fe46af7f612e0a05ecce3e24e7fff024836040516109ed919060ff91909116815260200190565b60405180910390a3610a25565b818585610a068161128f565b965081518110610a1857610a18611370565b6020026020010181815250505b50508080610a329061128f565b9150506108db565b50808252610a4f600487016020840183610f76565b5060028110610b9457600082600081518110610a6d57610a6d611370565b60200260200101519050600083600181518110610a8c57610a8c611370565b60209081029190910101516002546040516331a9108f60e11b8152600481018590529192506001600160a01b03169063af67dcb8908290636352211e90602401602060405180830381865afa158015610ae9573d6000803e3d6000fd5b505050506040513d601f19601f82011682018060405250810190610b0d9190611386565b8a5460405160e084901b6001600160e01b03191681526001600160a01b039092166004830152602482015260448101859052606481018490526084016020604051808303816000875af1158015610b68573d6000803e3d6000fd5b505050506040513d601f19601f82011682018060405250810190610b8c9190611276565b600589015550505b60038601805460ff1916600117905560058601546040518d917f79ea977724d344e1b270b2ee234e7fcf8d88d59924ec9007fc361d0588b27fb291610bdd918f918791906113a3565b60405180910390a2505050505050610bf460018055565b505050505050565b6000546001600160a01b031633146105925760405162461bcd60e51b815260206004820181905260248201527f4f776e61626c653a2063616c6c6572206973206e6f7420746865206f776e65726044820152606401610697565b600080546001600160a01b038381166001600160a01b0319831681178455604051919092169283917f8be0079c531659141344cd1fd0a4f28419497f9722a3daafe3b4186f6b6457e09190a35050565b600260015403610cf85760405162461bcd60e51b815260206004820152601f60248201527f5265656e7472616e637947756172643a207265656e7472616e742063616c6c006044820152606401610697565b6002600155565b6000806000610d0e8585610d23565b91509150610d1b81610d68565b509392505050565b6000808251604103610d595760208301516040840151606085015160001a610d4d87828585610eb2565b94509450505050610d61565b506000905060025b9250929050565b6000816004811115610d7c57610d7c61104d565b03610d845750565b6001816004811115610d9857610d9861104d565b03610de55760405162461bcd60e51b815260206004820152601860248201527f45434453413a20696e76616c6964207369676e617475726500000000000000006044820152606401610697565b6002816004811115610df957610df961104d565b03610e465760405162461bcd60e51b815260206004820152601f60248201527f45434453413a20696e76616c6964207369676e6174757265206c656e677468006044820152606401610697565b6003816004811115610e5a57610e5a61104d565b036106a95760405162461bcd60e51b815260206004820152602260248201527f45434453413a20696e76616c6964207369676e6174757265202773272076616c604482015261756560f01b6064820152608401610697565b6000807f7fffffffffffffffffffffffffffffff5d576e7357a4501ddfe92f46681b20a0831115610ee95750600090506003610f6d565b6040805160008082526020820180845289905260ff881692820192909252606081018690526080810185905260019060a0016020604051602081039080840390855afa158015610f3d573d6000803e3d6000fd5b5050604051601f1901519150506001600160a01b038116610f6657600060019250925050610f6d565b9150600090505b94509492505050565b828054828255906000526020600020908101928215610fb1579160200282015b82811115610fb1578251825591602001919060010190610f96565b50610fbd929150610fc1565b5090565b5b80821115610fbd5760008155600101610fc2565b6001600160a01b03811681146106a957600080fd5b60008060408385031215610ffe57600080fd5b823561100981610fd6565b946020939093013593505050565b60006020828403121561102957600080fd5b813561034681610fd6565b60006020828403121561104657600080fd5b5035919050565b634e487b7160e01b600052602160045260246000fd5b600581106106a957634e487b7160e01b600052602160045260246000fd5b85815260a0810161109186611063565b602082019590955260408101939093529015156060830152608090910152919050565b600081518084526020808501945080840160005b838110156110e4578151875295820195908201906001016110c8565b509495945050505050565b8581526110fb85611063565b846020820152831515604082015260a06060820152600061111f60a08301856110b4565b90508260808301529695505050505050565b600581106106a957600080fd5b6000806040838503121561115157600080fd5b823561115c81611131565b9150602083013561116c81611131565b809150509250929050565b60008083601f84011261118957600080fd5b50813567ffffffffffffffff8111156111a157600080fd5b602083019150836020828501011115610d6157600080fd5b600080600080600080608087890312156111d257600080fd5b8635955060208701356111e481611131565b9450604087013567ffffffffffffffff8082111561120157600080fd5b818901915089601f83011261121557600080fd5b81358181111561122457600080fd5b8a60208260061b850101111561123957600080fd5b60208301965080955050606089013591508082111561125757600080fd5b5061126489828a01611177565b979a9699509497509295939492505050565b60006020828403121561128857600080fd5b5051919050565b6000600182016112af57634e487b7160e01b600052601160045260246000fd5b5060010190565b6000602082840312156112c857600080fd5b815161034681611131565b634e487b7160e01b600052604160045260246000fd5b6112f284611063565b60f89390931b83526001830191909152602182015260410190565b6040810161131a84611063565b9281526020015290565b84815260f884901b6001600160f81b031916602082015260006021820184825b8581101561136357604080838537928301929190910190600101611344565b5090979650505050505050565b634e487b7160e01b600052603260045260246000fd5b60006020828403121561139857600080fd5b815161034681610fd6565b6113ac84611063565b8381526060602082015260006113c560608301856110b4565b905082604083015294935050505056fea26469706673582212206238a4a9f827b997b6fd76ed2ee63d8524fb43a511f2badc1e8d70a535a31d2d64736f6c63430008140033",
  "linkReferences": {},
  "deployedLinkReferences": {}
}