{
  "_format": "hh-sol-artifact-1",
  "contractName": "Arena",
  "sourceName": "contracts/Arena.sol",
  "abi": [
    {
      "inputs": [
        {
          "internalType": "address",
          "name": "_factory",
          "type": "address"
        },
        {
          "internalType": "address",
          "name": "_oracle",
          "type": "address"
        },
        {
          "internalType": "address",
          "name": "_engineSigner",
          "type": "address"
        },
        {
          "internalType": "address payable",
          "name": "_rewardDistributor",
          "type": "address"
        }
      ],
      "stateMutability": "nonpayable",
      "type": "constructor"
    },
    {
      "anonymous": false,
      "inputs": [
        {
          "indexed": true,
          "internalType": "uint256",
          "name": "tokenId",
          "type": "uint256"
        },
        {
          "indexed": true,
          "internalType": "uint256",
          "name": "roundId",
          "type": "uint256"
        },
        {
          "indexed": false,
          "internalType": "uint8",
          "name": "finalEcoScore",
          "type": "uint8"
        }
      ],
      "name": "AgentDied",
      "type": "event"
    },
    {
      "anonymous": false,
      "inputs": [
        {
          "indexed": true,
          "internalType": "address",
          "name": "previousOwner",
          "type": "address"
        },
        {
          "indexed": true,
          "internalType": "address",
          "name": "newOwner",
          "type": "address"
        }
      ],
      "name": "OwnershipTransferred",
      "type": "event"
    },
    {
      "anonymous": false,
      "inputs": [
        {
          "indexed": true,
          "internalType": "uint256",
          "name": "roundId",
          "type": "uint256"
        },
        {
          "indexed": false,
          "internalType": "enum Arena.Action",
          "name": "action",
          "type": "uint8"
        },
        {
          "indexed": false,
          "internalType": "uint256[]",
          "name": "survivors",
          "type": "uint256[]"
        },
        {
          "indexed": false,
          "internalType": "uint256",
          "name": "childId",
          "type": "uint256"
        }
      ],
      "name": "RoundResolved",
      "type": "event"
    },
    {
      "anonymous": false,
      "inputs": [
        {
          "indexed": true,
          "internalType": "uint256",
          "name": "roundId",
          "type": "uint256"
        },
        {
          "indexed": true,
          "internalType": "uint256",
          "name": "swarmId",
          "type": "uint256"
        },
        {
          "indexed": false,
          "internalType": "enum EcoOracle.Disaster",
          "name": "disaster",
          "type": "uint8"
        },
        {
          "indexed": false,
          "internalType": "bytes32",
          "name": "disasterHash",
          "type": "bytes32"
        }
      ],
      "name": "RoundStarted",
      "type": "event"
    },
    {
      "inputs": [
        {
          "internalType": "uint256",
          "name": "swarmId",
          "type": "uint256"
        }
      ],
      "name": "claimReward",
      "outputs": [],
      "stateMutability": "nonpayable",
      "type": "function"
    },
    {
      "inputs": [
        {
          "internalType": "enum Arena.Action",
          "name": "",
          "type": "uint8"
        },
        {
          "internalType": "enum EcoOracle.Disaster",
          "name": "",
          "type": "uint8"
        }
      ],
      "name": "ecoMatrix",
      "outputs": [
        {
          "internalType": "int8",
          "name": "",
          "type": "int8"
        }
      ],
      "stateMutability": "view",
      "type": "function"
    },
    {
      "inputs": [],
      "name": "engineSigner",
      "outputs": [
        {
          "internalType": "address",
          "name": "",
          "type": "address"
        }
      ],
      "stateMutability": "view",
      "type": "function"
    },
    {
      "inputs": [],
      "name": "factory",
      "outputs": [
        {
          "internalType": "contract AgentFactory",
          "name": "",
          "type": "address"
        }
      ],
      "stateMutability": "view",
      "type": "function"
    },
    {
      "inputs": [
        {
          "internalType": "uint256",
          "name": "roundId",
          "type": "uint256"
        }
      ],
      "name": "getRound",
      "outputs": [
        {
          "internalType": "uint256",
          "name": "swarmId",
          "type": "uint256"
        },
        {
          "internalType": "enum EcoOracle.Disaster",
          "name": "disaster",
          "type": "uint8"
        },
        {
          "internalType": "bool",
          "name": "resolved",
          "type": "bool"
        },
        {
          "internalType": "uint256[]",
          "name": "survivors",
          "type": "uint256[]"
        },
        {
          "internalType": "uint256",
          "name": "childId",
          "type": "uint256"
        }
      ],
      "stateMutability": "view",
      "type": "function"
    },
    {
      "inputs": [
        {
          "internalType": "address",
          "name": "to",
          "type": "address"
        },
        {
          "internalType": "bytes32",
          "name": "baseDNA",
          "type": "bytes32"
        }
      ],
      "name": "mintSwarm",
      "outputs": [
        {
          "internalType": "uint256",
          "name": "swarmId",
          "type": "uint256"
        }
      ],
      "stateMutability": "nonpayable",
      "type": "function"
    },
    {
      "inputs": [],
      "name": "oracle",
      "outputs": [
        {
          "internalType": "contract EcoOracle",
          "name": "",
          "type": "address"
        }
      ],
      "stateMutability": "view",
      "type": "function"
    },
    {
      "inputs": [],
      "name": "owner",
      "outputs": [
        {
          "internalType": "address",
          "name": "",
          "type": "address"
        }
      ],
      "stateMutability": "view",
      "type": "function"
    },
    {
      "inputs": [],
      "name": "renounceOwnership",
      "outputs": [],
      "stateMutability": "nonpayable",
      "type": "function"
    },
    {
      "inputs": [
        {
          "internalType": "uint256",
          "name": "roundId",
          "type": "uint256"
        },
        {
          "internalType": "enum Arena.Action",
          "name": "action",
          "type": "uint8"
        },
        {
          "internalType": "uint256[2][]",
          "name": "agentScores",
          "type": "uint256[2][]"
        },
        {
          "internalType": "bytes",
          "name": "signature",
          "type": "bytes"
        }
      ],
      "name": "resolveRound",
      "outputs": [],
      "stateMutability": "nonpayable",
      "type": "function"
    },
    {
      "inputs": [],
      "name": "rewardDistributor",
      "outputs": [
        {
          "internalType": "contract RewardDistributor",
          "name": "",
          "type": "address"
        }
      ],
      "stateMutability": "view",
      "type": "function"
    },
    {
      "inputs": [],
      "name": "roundCounter",
      "outputs": [
        {
          "internalType": "uint256",
          "name": "",
          "type": "uint256"
        }
      ],
      "stateMutability": "view",
      "type": "function"
    },
    {
      "inputs": [
        {
          "internalType": "uint256",
          "name": "",
          "type": "uint256"
        }
      ],
      "name": "rounds",
      "outputs": [
        {
          "internalType": "uint256",
          "name": "swarmId",
          "type": "uint256"
        },
        {
          "internalType": "enum EcoOracle.Disaster",
          "name": "disaster",
          "type": "uint8"
        },
        {
          "internalType": "uint256",
          "name": "startTime",
          "type": "uint256"
        },
        {
          "internalType": "bool",
          "name": "resolved",
          "type": "bool"
        },
        {
          "internalType": "uint256",
          "name": "childId",
          "type": "uint256"
        }
      ],
      "stateMutability": "view",
      "type": "function"
    },
    {
      "inputs": [
        {
          "internalType": "address",
          "name": "_signer",
          "type": "address"
        }
      ],
      "name": "setEngineSigner",
      "outputs": [],
      "stateMutability": "nonpayable",
      "type": "function"
    },
    {
      "inputs": [
        {
          "internalType": "uint256",
          "name": "swarmId",
          "type": "uint256"
        }
      ],
      "name": "startRound",
      "outputs": [
        {
          "internalType": "uint256",
          "name": "roundId",
          "type": "uint256"
        }
      ],
      "stateMutability": "nonpayable",
      "type": "function"
    },
    {
      "inputs": [
        {
          "internalType": "address",
          "name": "newOwner",
          "type": "address"
        }
      ],
      "name": "transferOwnership",
      "outputs": [],
      "stateMutability": "nonpayable",
      "type": "function"
    },
    {
      "inputs": [
        {
          "internalType": "bytes32",
          "name": "",
          "type": "bytes32"
        }
      ],
      "name": "usedSignatures",
      "outputs": [
        {
          "internalType": "bool",
          "name": "",
          "type": "bool"
        }
      ],
      "stateMutability": "view",
      "type": "function"
    }
  ],
  "bytecode": "0x60806040523480156200001157600080fd5b5060405162001c0f38038062001c0f833981016040819052620000349162000365565b6200003f33620002fc565b60018055600280546001600160a01b038087166001600160a01b03199283161790925560038054868416908316179055600580548584169083161790556004805492841692909116919091179055620002f27f76f2babce59d6f09fcd3a78f4d43564d0f12e1ef1118541ef82e4d2eba872865805460ff19908116601e179091557f3b543ac468519aa6396aba1a2611925510398aac61d1cc7b45f433e69042eb5780548216600a1790557fc12e897952fcdd8e77a4bcc5c86367b4cd9a162c784a0ca6d3bc9958a0088c57805460f690831681179091557f201cfe56e3078299f26d8ce4ac47862ef90d0160f4a50f7c80a39a29152f50858054831660199081179091557f04da9c713450b7e7a01b7bb4ffef355cd0b7370b0c137920454c8a706b803aaf80548416600f9081179091557fd9690336c04c7b4a20664fc4d426cbd085363881e4fde5554979ba447badb41b8054851660149081179091557ffdbaa61bf09a210226188268049d5ebf658984ab2693430e08b7b48b4667d4ae80548616821790557f6926a2205f90c23d98f625c45767fa4e43d7ad718c426d65a2d8ec1fa268f0b6805460ec9087161790557f329cbae33ff921d114da652fb4797ac3c47244ad2f4f95dd9d5a42172799b75f805460f19087161790557fbd922c22a37989ef60ae9e489be4f9e12d6f07e316c15239e286deea1842ad87805486169094179093557fa32988ffd42214dd516fd485aee934237c8ff4fbe969011770caed500269070b805485169092179091557f8cc995c8f3f35c8733a0059cd7d1114906fdcdc1628142d868d9913b5fc874cd8054841690921790915560046000527f9321edea6e3be4df59a344b401fab4f888b556fda1f954244cff9204bad624b86020527fff4017a425519667a0023007fdaae848f518b16c713522801e74def17ace91518054909216179055565b50505050620003cd565b600080546001600160a01b038381166001600160a01b0319831681178455604051919092169283917f8be0079c531659141344cd1fd0a4f28419497f9722a3daafe3b4186f6b6457e09190a35050565b6001600160a01b03811681146200036257600080fd5b50565b600080600080608085870312156200037c57600080fd5b845162000389816200034c565b60208601519094506200039c816200034c565b6040860151909350620003af816200034c565b6060860151909250620003c2816200034c565b939692955090935050565b61183280620003dd6000396000f3fe608060405234801561001057600080fd5b506004361061010b5760003560e01c8063a8459aa9116100a2578063f2d62db811610071578063f2d62db814610292578063f2fde38b146102a5578063f978fd61146102b8578063fe3aaa67146102eb578063febc14b1146102fe57600080fd5b8063a8459aa914610219578063acc2166a14610259578063ae169a501461026c578063c45a01551461027f57600080fd5b80637dc0d1d0116100de5780637dc0d1d0146101665780638c65c81f146101915780638da5cb5b146101e45780638f1327c0146101f557600080fd5b806320dee1ba146101105780634a6c356f146101365780635fc3d52d1461014b578063715018a61461015e575b600080fd5b61012361011e366004611354565b610307565b6040519081526020015b60405180910390f35b610149610144366004611380565b610386565b005b61012361015936600461139d565b6103b0565b6101496105b9565b600354610179906001600160a01b031681565b6040516001600160a01b03909116815260200161012d565b6101d361019f36600461139d565b60066020526000908152604090208054600182015460028301546003840154600590940154929360ff928316939192169085565b60405161012d9594939291906113ea565b6000546001600160a01b0316610179565b61020861020336600461139d565b6105cd565b60405161012d959493929190611458565b6102466102273660046114a7565b6008602090815260009283526040808420909152908252812054900b81565b60405160009190910b815260200161012d565b600454610179906001600160a01b031681565b61014961027a36600461139d565b61066a565b600254610179906001600160a01b031681565b600554610179906001600160a01b031681565b6101496102b3366004611380565b6109a7565b6102db6102c636600461139d565b60096020526000908152604090205460ff1681565b604051901515815260200161012d565b6101496102f9366004611522565b610a1d565b61012360075481565b60025460405163106f70dd60e11b81526001600160a01b0384811660048301526024820184905260009216906320dee1ba906044016020604051808303816000875af115801561035b573d6000803e3d6000fd5b505050506040513d601f19601f8201168201806040525081019061037f91906115df565b9392505050565b61038e610f65565b600580546001600160a01b0319166001600160a01b0392909216919091179055565b60078054600091826103c1836115f8565b909155506040805142602082015244918101919091526060810182905290915060009060800160408051808303601f19018152908290528051602090910120600354639bbebd7560e01b8352600483018290529092506000916001600160a01b0390911690639bbebd7590602401602060405180830381865afa15801561044c573d6000803e3d6000fd5b505050506040513d601f19601f82011682018060405250810190610470919061161f565b90506040518060c00160405280858152602001826004811115610495576104956113b6565b8152426020808301919091526000604080840182905280518281528084018252606085015260809093018190528681526006825291909120825181559082015160018083018054909160ff19909116908360048111156104f7576104f76113b6565b021790555060408201516002820155606082015160038201805460ff1916911515919091179055608082015180516105399160048401916020909101906112df565b5060a08201518160050155905050600081844260405160200161055e93929190611652565b60405160208183030381529060405280519060200120905084847f55f3bcd9d2b383b3b44aaf45d2eefb061dcb47fcf41f41f6240c9911720ebcce84846040516105a9929190611676565b60405180910390a3505050919050565b6105c1610f65565b6105cb6000610fbf565b565b600081815260066020908152604080832080546001820154600383015460058401546004850180548751818a0281018a01909852808852899889986060988a989097909660ff9182169691169493909284919083018282801561064f57602002820191906000526020600020905b81548152602001906001019080831161063b575b50505050509150955095509550955095505091939590929450565b61067261100f565b6002546040516331a0469560e11b8152600481018390526000916001600160a01b0316906363408d2a90602401600060405180830381865afa1580156106bc573d6000803e3d6000fd5b505050506040513d6000823e601f3d908101601f191682016040526106e4919081019061168d565b9050600081511161072c5760405162461bcd60e51b815260206004820152600d60248201526c496e76616c696420737761726d60981b60448201526064015b60405180910390fd5b60025481516000916001600160a01b031690636352211e90849084906107545761075461174b565b60200260200101516040518263ffffffff1660e01b815260040161077a91815260200190565b602060405180830381865afa158015610797573d6000803e3d6000fd5b505050506040513d601f19601f820116820180604052508101906107bb9190611761565b9050336001600160a01b038216146108075760405162461bcd60e51b815260206004820152600f60248201526e2737ba1039bbb0b9369037bbb732b960891b6044820152606401610723565b6000805b83518110156108d25760025484516001600160a01b0390911690636352211e9086908490811061083d5761083d61174b565b60200260200101516040518263ffffffff1660e01b815260040161086391815260200190565b602060405180830381865afa92505050801561089c575060408051601f3d908101601f1916820190925261089991810190611761565b60015b156108c0576001600160a01b038116156108be57826108ba816115f8565b9350505b505b806108ca816115f8565b91505061080b565b5060078110156109245760405162461bcd60e51b815260206004820152601b60248201527f4e65656420372b206167656e747320616c69766520746f2077696e00000000006044820152606401610723565b6004805460405163738759c960e11b81529182018690523360248301526001600160a01b03169063e70eb392906044016020604051808303816000875af1158015610973573d6000803e3d6000fd5b505050506040513d601f19601f8201168201806040525081019061099791906115df565b505050506109a460018055565b50565b6109af610f65565b6001600160a01b038116610a145760405162461bcd60e51b815260206004820152602660248201527f4f776e61626c653a206e6577206f776e657220697320746865207a65726f206160448201526564647265737360d01b6064820152608401610723565b6109a481610fbf565b610a2561100f565b6000868152600660205260409020600381015460ff1615610a7b5760405162461bcd60e51b815260206004820152601060248201526f105b1c9958591e481c995cdbdb1d995960821b6044820152606401610723565b600087876004811115610a9057610a906113b6565b8787604051602001610aa5949392919061177e565b6040516020818303038152906040528051906020012090506000610af6827f19457468657265756d205369676e6564204d6573736167653a0a3332000000006000908152601c91909152603c902090565b90506000610b3c86868080601f01602080910402602001604051908101604052809392919081815260200183838082843760009201919091525086939250506110689050565b6005549091506001600160a01b03808316911614610b905760405162461bcd60e51b8152602060048201526011602482015270496e76616c6964207369676e617475726560781b6044820152606401610723565b60008281526009602052604090205460ff1615610be25760405162461bcd60e51b815260206004820152601060248201526f5369676e6174757265207265706c617960801b6044820152606401610723565b6000828152600960205260408120805460ff191660011790558767ffffffffffffffff811115610c1457610c1461163c565b604051908082528060200260200182016040528015610c3d578160200160208202803683370190505b5090506000805b89811015610da35760008b8b83818110610c6057610c6061174b565b905060400201600060028110610c7857610c7861174b565b6020020135905060008c8c84818110610c9357610c9361174b565b905060400201600160028110610cab57610cab61174b565b60200201359050601e8160ff161015610d63576002546040516318b8137760e21b8152600481018490526001600160a01b03909116906362e04ddc90602401600060405180830381600087803b158015610d0457600080fd5b505af1158015610d18573d6000803e3d6000fd5b505050508e827f9b44140f597aa40aed3723c499d47828fe46af7f612e0a05ecce3e24e7fff02483604051610d56919060ff91909116815260200190565b60405180910390a3610d8e565b818585610d6f816115f8565b965081518110610d8157610d8161174b565b6020026020010181815250505b50508080610d9b906115f8565b915050610c44565b50808252610db86004870160208401836112df565b5060028110610efd57600082600081518110610dd657610dd661174b565b60200260200101519050600083600181518110610df557610df561174b565b60209081029190910101516002546040516331a9108f60e11b8152600481018590529192506001600160a01b03169063af67dcb8908290636352211e90602401602060405180830381865afa158015610e52573d6000803e3d6000fd5b505050506040513d601f19601f82011682018060405250810190610e769190611761565b8a5460405160e084901b6001600160e01b03191681526001600160a01b039092166004830152602482015260448101859052606481018490526084016020604051808303816000875af1158015610ed1573d6000803e3d6000fd5b505050506040513d601f19601f82011682018060405250810190610ef591906115df565b600589015550505b60038601805460ff1916600117905560058601546040518d917f79ea977724d344e1b270b2ee234e7fcf8d88d59924ec9007fc361d0588b27fb291610f46918f918791906117ca565b60405180910390a2505050505050610f5d60018055565b505050505050565b6000546001600160a01b031633146105cb5760405162461bcd60e51b815260206004820181905260248201527f4f776e61626c653a2063616c6c6572206973206e6f7420746865206f776e65726044820152606401610723565b600080546001600160a01b038381166001600160a01b0319831681178455604051919092169283917f8be0079c531659141344cd1fd0a4f28419497f9722a3daafe3b4186f6b6457e09190a35050565b6002600154036110615760405162461bcd60e51b815260206004820152601f60248201527f5265656e7472616e637947756172643a207265656e7472616e742063616c6c006044820152606401610723565b6002600155565b6000806000611077858561108c565b91509150611084816110d1565b509392505050565b60008082516041036110c25760208301516040840151606085015160001a6110b68782858561121b565b945094505050506110ca565b506000905060025b9250929050565b60008160048111156110e5576110e56113b6565b036110ed5750565b6001816004811115611101576111016113b6565b0361114e5760405162461bcd60e51b815260206004820152601860248201527f45434453413a20696e76616c6964207369676e617475726500000000000000006044820152606401610723565b6002816004811115611162576111626113b6565b036111af5760405162461bcd60e51b815260206004820152601f60248201527f45434453413a20696e76616c6964207369676e6174757265206c656e677468006044820152606401610723565b60038160048111156111c3576111c36113b6565b036109a45760405162461bcd60e51b815260206004820152602260248201527f45434453413a20696e76616c6964207369676e6174757265202773272076616c604482015261756560f01b6064820152608401610723565b6000807f7fffffffffffffffffffffffffffffff5d576e7357a4501ddfe92f46681b20a083111561125257506000905060036112d6565b6040805160008082526020820180845289905260ff881692820192909252606081018690526080810185905260019060a0016020604051602081039080840390855afa1580156112a6573d6000803e3d6000fd5b5050604051601f1901519150506001600160a01b0381166112cf576000600192509250506112d6565b9150600090505b94509492505050565b82805482825590600052602060002090810192821561131a579160200282015b8281111561131a5782518255916020019190600101906112ff565b5061132692915061132a565b5090565b5b80821115611326576000815560010161132b565b6001600160a01b03811681146109a457600080fd5b6000806040838503121561136757600080fd5b82356113728161133f565b946020939093013593505050565b60006020828403121561139257600080fd5b813561037f8161133f565b6000602082840312156113af57600080fd5b5035919050565b634e487b7160e01b600052602160045260246000fd5b600581106109a457634e487b7160e01b600052602160045260246000fd5b85815260a081016113fa866113cc565b602082019590955260408101939093529015156060830152608090910152919050565b600081518084526020808501945080840160005b8381101561144d57815187529582019590820190600101611431565b509495945050505050565b858152611464856113cc565b846020820152831515604082015260a06060820152600061148860a083018561141d565b90508260808301529695505050505050565b600581106109a457600080fd5b600080604083850312156114ba57600080fd5b82356114c58161149a565b915060208301356114d58161149a565b809150509250929050565b60008083601f8401126114f257600080fd5b50813567ffffffffffffffff81111561150a57600080fd5b6020830191508360208285010111156110ca57600080fd5b6000806000806000806080878903121561153b57600080fd5b86359550602087013561154d8161149a565b9450604087013567ffffffffffffffff8082111561156a57600080fd5b818901915089601f83011261157e57600080fd5b81358181111561158d57600080fd5b8a60208260061b85010111156115a257600080fd5b6020830196508095505060608901359150808211156115c057600080fd5b506115cd89828a016114e0565b979a9699509497509295939492505050565b6000602082840312156115f157600080fd5b5051919050565b60006001820161161857634e487b7160e01b600052601160045260246000fd5b5060010190565b60006020828403121561163157600080fd5b815161037f8161149a565b634e487b7160e01b600052604160045260246000fd5b61165b846113cc565b60f89390931b83526001830191909152602182015260410190565b60408101611683846113cc565b9281526020015290565b600060208083850312156116a057600080fd5b825167ffffffffffffffff808211156116b857600080fd5b818501915085601f8301126116cc57600080fd5b8151818111156116de576116de61163c565b8060051b604051601f19603f830116810181811085821117156117035761170361163c565b60405291825284820192508381018501918883111561172157600080fd5b938501935b8285101561173f57845184529385019392850192611726565b98975050505050505050565b634e487b7160e01b600052603260045260246000fd5b60006020828403121561177357600080fd5b815161037f8161133f565b84815260f884901b6001600160f81b031916602082015260006021820184825b858110156117bd5760408083853792830192919091019060010161179e565b5090979650505050505050565b6117d3846113cc565b8381526060602082015260006117ec606083018561141d565b905082604083015294935050505056fea2646970667358221220bc160dfd9b830afc7470d750c38ee11a58ad027afe92f81bfb58941252cd6e9a64736f6c63430008140033",
  "linkReferences": {},
  "deployedLinkReferences": {}
}